:020000041000EA
:1000000000B5324B212058609868022188439860DF
:10001000D860186158612E4B002199600221596106
:100020000121F02299502B49196001219960352056
:1000300000F044F80222904214D00621196600F024
:1000400034F8196E01211966002018661A6600F04E
:100050002CF8196E196E196E052000F02FF8012189
:100060000842F9D1002199601B49196000215960AB
:100070001A491B48016001219960EB211966A021F2
:10008000196600F012F800219960164914480160C1
:100090000121996001BC002800D000471248134993
:1000A000086003C880F30888084703B5996A0420EC
:1000B0000142FBD001200142F8D103BD02B5186610
:1000C0001866FFF7F2FF186E186E02BD00000240BE
:1000D000000000180000070000035F00212200005C
:1000E000F4000018222000A00001001008ED00E03C
:1000F00000000000000000000000000074B24E7A12
:1001000000200420F7010010C3010010C5010010F9
:10011000C1010010C1010010C1010010C101001097
:10012000C1010010C1010010C1010010C701001081
:10013000C1010010C1010010C9010010CB01001065
:10014000CD010010CD010010CD010010CD01001037
:10015000CD010010CD010010CD010010CD01001027
:10016000CD010010CD010010CD010010CD01001017
:10017000CD010010CD010010CD010010CD01001007
:10018000CD010010CD010010CD010010CD010010F7
:10019000CD010010CD010010CD010010CD010010E7
:1001A000CD010010CD010010CD010010CD010010D7
:1001B000CD010010CD010010CD010010CD010010C7
:1001C00000BE00BE00BE00BE00BE00BEEFF3058054
:1001D000103800BEF2EB8871B45B0010DC5B0010DD
:1001E0003402001090A31AE700201F49086006C8D7
:1001F00081F3088810471D48006800282FD10DA4FE
:100200000ECC002902D000F012F8F9E71849194A7B
:10021000002000E001C19142FCD1174988471749ED
:1002200088471749884700BEFDE701C901C29A42C5
:10023000FBD37047DC5B0010C0000020280F0020BB
:10024000446A00100000042000000420446A0010EA
:10025000001004200010042000000000704709482E
:1002600002F0F4FC0047000008ED00E0000000D0C0
:10027000280F0020CC1D0020C52A001055030010B7
:10028000B92B00105756000006005250ABB3605314
:100290003859001006005250861C030248590010BD
:1002A000060052505422A29D585900100500525089
:1002B000DE65F468446A0010F8B5C0460448054B92
:1002C00010B5834203D0044B002B00D0984710BDDB
:1002D000280F0020280F00200000000006480749D2
:1002E000091A8B10C90FC91810B5491003D0044B57
:1002F000002B00D0984710BD280F0020280F0020A9
:100300000000000010B5074C2378002B09D1FFF73F
:10031000D5FF054B002B02D0044800E000BF0123AD
:10032000237010BD30120020000000006058001043
:10033000054B10B5002B03D00449054800E000BF71
:10034000FFF7CCFF10BDC0460000000034120020B3
:1003500060580010F0B5DE4657464E464546E0B5BB
:1003600085B002F04FFF0522FA20444BC0001A600E
:10037000434A00275A6001F05FFD424802F0C0FE88
:10038000192000F089FED0231B06984680239B0489
:10039000994643464A465A625A613B4B9A463B4805
:1003A00002F038FF622823D0652833D06F28F6D1B9
:1003B00043464A4655469A615246FB000835D418D2
:1003C000ED182078013402F0B9FEAC42F9D1FF20DB
:1003D00002F0B4FE380002F0B1FE1F2301371F40C7
:1003E00043464A4629485A6102F014FF6228DBD18D
:1003F00043464A469A615346FD005C1908335D192D
:10040000224802F007FF431CFAD020700134A542B5
:10041000F6D1DCE71E4C43464A4625009A610A3570
:100420001A4802F0F7FE431CFAD020700134A542AE
:10043000F6D1124C50461649A56800F06DFC00221A
:10044000A3680192009502930392029A039B009C79
:10045000019DA41A9D41FF2308269B465846204033
:1004600002F06CFE013E2906220A2B0A1143F6B265
:100470000C001D00002EF1D1B2E7C04610E000E0F4
:10048000FFFFFF0060580010801C0020A0860100C4
:10049000501C00204B688A68F0B5454690461A40CB
:1004A00057464E46DE4694460C68E0B52200654647
:1004B000CF685A4055407D40C560150083B001901B
:1004C00040463D406540A843050020001E0098437B
:1004D000030026403E40019873406B4083603D001E
:1004E0002300404625403B43034055405D400123E7
:1004F00075405D40434601985C4045604546634613
:100500003D402A4062407A405A40012372405A409E
:1005100002608B694D691A002A4094460C69664650
:100520002200CF696A4056407E40C66110003840C4
:1005300060408146984618004B469843814620000B
:100540002E00A84305004B4626403E4001987540CA
:100550005D408561200043463D003843184001233B
:1005600025405540454075405D40434601985C40FC
:100570004561454663463D402A4062407A405A40C4
:10058000012372405A4002618B6A4D6A1A002A4068
:1005900094460C6A66462200CF6A6A4056407E4006
:1005A000C6621000384060408146984618004B46AD
:1005B0009843814620002E00A84305004B46264064
:1005C0003E40019875405D408562250043463800F5
:1005D0003D431D40012320405040454075405D4053
:1005E000434601985C404562454663463D402A408B
:1005F00062407A405A40012372405A4002628B6B3B
:100600004D6B1A002A4094460C6B66462200CF6B55
:100610006A4056407E40C6631000384060408146C4
:10062000984618004B469843814620002E00A84368
:1006300005004B4626403E40019875405D4085636D
:10064000200043463D0038431840012325405540D3
:10065000454075405D40434601985C4045634546D2
:1006600063463D402A4062407A405A40012372402E
:100670005A4002638B6C4D6C1A002A4094460C6CF5
:1006800066462200CF6C6A4056407E40C664100029
:10069000384060408146984618004B469843814652
:1006A00020002E00A84305004B4626403E400198FE
:1006B00075405D408564200043463D003843184046
:1006C000012325405540454075405D404346019813
:1006D0005C404564454663463D402A4062407A405E
:1006E0005A40012372405A4002648B6D4D6D1A00CE
:1006F0002A4094460C6D66462200CF6D6A405640F3
:100700007E40C6651000384060408146984618001B
:100710004B469843814620002E00A84305004B46D7
:1007200026403E40019875405D4085652500434662
:1007300038003D431D400123204050404540754056
:100740005D40434601985C404565454663463D40F3
:100750002A4062407A405A40012372405A40026562
:100760000C6E4D6E8B6ECF6E1A002A40944622009E
:1007700066466A4056407E40C6661000384060407B
:100780008146984618004B469843814620002E002B
:10079000A84305004B4626403E40019875405D4009
:1007A0008566200043463D0038431840012325401C
:1007B0005540454075405D40434601985C40456664
:1007C000454663463D402A4062407A405A400123F4
:1007D00072405A4002668B6F4D6F1A002A40944651
:1007E0000C6F66462200CF6F6A4056407E40C66757
:1007F0001000384060408146984618004B469843A8
:10080000814620002E00A84305004B4626403E406E
:10081000019875405D4085672500434638003D439B
:100820001D40012320405040454075405D404346F7
:1008300001985C404567454663463D402A4062401A
:100840007A405A40012372405A40026783339A46E5
:10085000CB5807009C4688239B46CB5862460193A1
:100860008C23CD589846019B80201A4091466246C1
:100870000C584E4662401000284060404346804677
:1008800056406E40FE504346019866469843804667
:100890006346200026402E409843704084464046E0
:1008A000634658405B46F8502000019B284318409F
:1008B00084462800204050408046604643465840C9
:1008C0000123704058405346F8502800019B1840BF
:1008D000019B02405C404B46624055405D40012315
:1008E00080206E405E403E50933310300C589A4644
:1008F000CB589C4698239B46CB58624601939C2339
:10090000CD589846019B1A409146624662401000BD
:100910004E46284060404346804656406E40FE505A
:100920004346019866469843804663462000264029
:100930002E409843704084464046634658405B468C
:10094000F8502000019B284318408446280020408E
:10095000504080466046434658400123704058400E
:100960005346F8502800019B1840019B02405C4010
:100970004B46624055405D40012390206E405E40F2
:100980003E50A3339A46CB5810309C46A8239B4632
:10099000CB5862460193AC23CD589846019B0C5826
:1009A0001A4091466246624010004E462840604020
:1009B0004346804656406E40FE5043460198664688
:1009C000984380466346200026402E40984370405E
:1009D00084464046634658405B46F8502000019BE1
:1009E00028431840844628002040504080466046F6
:1009F000434658400123704058405346F850280061
:100A0000019B1840019B02405C404B4662405540B0
:100A10005D400123A0206E405E403E50B3339A46B5
:100A2000CB5810309C46B8239B46CB586246019366
:100A3000BC230C589846CD58019B1A4091466246FB
:100A4000624010004E462840604043468046564073
:100A50006E40FE5043460198664698438046634682
:100A6000200026402E40984370408446404663460E
:100A700058405B46F8502000019B284318408446AC
:100A8000280020405040804660464346584001239D
:100A9000704058405346F8502800019B1840019B75
:100AA00002405C404B466240012055405D40C423FB
:100AB0006E404640AF303E509A46CB5810309C4670
:100AC000C8239B46CB5862460193CC23CD58984609
:100AD000019B0C581A40914662464E46434662407E
:100AE00056406E40FE502B001340634098464046EF
:100AF000019B6646834398466046230026402E406D
:100B0000834373409C464346604643409C465B4655
:100B10006046F850230001982B4303409C462B006D
:100B2000234053409846634640464340012073406B
:100B300043409C4653466046F8502B0001980340C2
:100B40001A404B464440624055405D400123C0205E
:100B5000D4226E405E403E5092468A58CF3394462F
:100B6000D822CC5893468B5804328D589046624612
:100B70001A40914662464E464046624056406E409C
:100B80003E502800104060408046019318004346C4
:100B90006646984380466346200026402E40984390
:100BA000704084464046634658405B46F8502000FB
:100BB000019B28431840844628002040504080462E
:100BC0006046434658400123704058405346F85011
:100BD0002800019B1840019B02405C404B4662404C
:100BE00055405D400123E4226E405E40CF33FE500D
:100BF00092468A5810339446E822CC5893468B5834
:100C000004328D58904662461A40914662464E46DE
:100C10004046624056406E403E50280010406040C2
:100C200080460193180043466646984380466346D3
:100C3000200026402E40984370408446404663463C
:100C400058405B46F8502000019B284318408446DA
:100C500028002040504080466046434658400123CB
:100C6000704058405346F8502800019B1840019BA3
:100C700002405C404B46624055405D4001236E405F
:100C80005E40DF33FE501033CC589C460433994607
:100C9000CB58FC269A465246F82362403800574605
:100CA0008D599B46CB5811001F40794069408151B6
:100CB000290011406140984656468B430190190027
:100CC0005046230026402E408343734059405B46E4
:100CD0000198C15021004346294319402B0023406D
:100CE000534059400123714059404B46C15043463F
:100CF00041465C40012329400A4062406A407A40F4
:100D0000724053406246835003B0F0BCBB46B246CB
:100D1000A946A046F0BDC0460300F0B5DE465746E2
:100D20004E464546013B9A468023E0B55B00CB4CDE
:100D30009C465346A544059001200E000193019B5B
:100D40000AAD1A5C431E00240121AB46B246072BB4
:100D500050D963011C330AAEF6183568D7092F4302
:100D60000AADA846951137602F001E1F464435680E
:100D70000F402F4337601E0055112F00083E464498
:100D800035680F402F4337601E0015112F000C3EB1
:100D9000464435680F402F4337601E00D5102F00A2
:100DA000103E464435680F402F4337601E009510B3
:100DB0002F00143E464435680F402F43183B3760E0
:100DC00043441D6856100E402E431E606301434489
:100DD0001D680A402A431A60062C26DC013460454F
:100DE00026D020239846019B01301A5C431EC34441
:100DF000072BAED85D46D309EB6193110B40AB6175
:100E000053110B406B6113110B402B61D3100B403E
:100E1000EB6093100B40AB6053100B400A406B60CB
:100E20002A60062CDADD0024DBE700246045D8D1F7
:100E30005646747AF278A44601242700B8460292F6
:100E40003279B37803927279B0790492F179327A77
:100E50008AAD02340A9F7B400A930B9F029B7B4022
:100E60000B930C9F039B7B400C930D9F049B7B403B
:100E700067460D930E9B58400F9B0E905940109B58
:100E80000F915A40119B0AA95F404AA810921197EE
:100E9000FFF700FB00214AA8230084220B408F109B
:100EA0001B01DB1992009B009B1806AA94466C4A12
:100EB0006344944604C863441A600131A842EBD1EC
:100EC000684A06AB83CA83C312681A60B378327863
:100ED0009C46F378B0799A4663465146DB0849014F
:100EE0000B43337033797778019373799946D90836
:100EF00043011943C9B20291F170F179C0084B0165
:100F00001843C0B203903071307AC90843011943C5
:100F1000C9B204917171717AC0084B011843C908B4
:100F200053011943D2087B011A436346FF085B0152
:100F30001F43FBB29C461F0906ABDF5D63463F01C2
:100F4000BB460F273B405F461F43FBB273729C4674
:100F50005346C0B2C9B2D2B2DF08B071F171327279
:100F6000019B5B013B439A464346DF0153465F408A
:100F700077704F46019B7F01DB083B4347467F0864
:100F80007B4047460137DBB2FFB2B846B370202F33
:100F900000D05FE70A9C002663400A930B9C029BEB
:100FA0004AAD63400B930C9C039B63400C930D9CD8
:100FB000049B63400D930E9B58400F9B0E9059402D
:100FC000109B0F915A4063461092119A0021534092
:100FD000119301239C46FF339846059B9946604632
:100FE0004B4688409C190AAA136827780340CB40D7
:100FF0003B4357680740CF407F003B43976807401B
:10100000CF40BF003B43D7680740CF40FF003B4382
:1010100017690740CF403F013B4357690740CF4026
:101020007F013B4397690740CF40BF013B43D769EE
:1010300020320740CF40FF013B43237001349542EB
:10104000D2D1083601314645C9D18B239B009D443E
:10105000F0BCBB46B246A946A046F0BDD4FDFFFF9A
:1010600000FEFFFF94580010094A83009446402276
:10107000634410B51C68C0006240C0241440802244
:10108000520113431C60034B9C466044416010BDF9
:1010900004C00140004001400123D02283401206D9
:1010A00093629361094A830094464022634419681D
:1010B000C0004A40C02111408022520113431960F0
:1010C000034B9C46052360444360704704C00140C5
:1010D00000400140024B18688007C00F7047C046AF
:1010E00000C0064070B5EFF3108C72B60D4D2B6842
:1010F000002BFCD0BFF35F8F0724CB08C618C05C61
:1011000001230C40A3401C000440034207D10343C9
:101110003370BFF35F8F2C608CF3108870BD1000AC
:1011200001F04EFD2C0100D0F8B54746CE4688466A
:1011300080B5EFF3108C72B6214D2C68002CFCD0DA
:10114000BFF35F8F9A422CD8D4080727055D061994
:1011500001241740BC402C421FD00721012789469B
:1011600009E0D408055D06194C4639001440A14039
:101170000C00294211D001329342F2D201204042A8
:10118000BFF35F8F00220E4B1A608CF3108800288B
:101190000FDBC0BCB946B046F8BD2C43100034701C
:1011A000EEE7BFF35F8F00232B608CF310880120E4
:1011B00040424346002BECD0089801F001FDC046A8
:1011C0002C0100D00021044B044ABFF35F8F02C3FF
:1011D0009342FAD17047C046000100D0800100D090
:1011E000044A1078431CDBB2172B00D9102313706C
:1011F0007047C046180E002000B5054B83B00100B3
:10120000009318221F230348FFF78EFF03B000BD91
:10121000A4580010B017002001238340002904D0F7
:10122000034A1360034A13607047034A1360FBE7E5
:1012300080E200E000E100E080E100E00123834083
:10124000014A13607047C04600E200E0084B1030CE
:101250009B688000C358002B07D0064A00209B1AC9
:101260002F229A424041C0B270470020FCE7C0469E
:1012700000ED00E01C0E0020024B10309B68800047
:10128000C058704700ED00E070B50D00EFF3108618
:1012900072B60F4A1368002BFCD0BFF35F8F0D4B63
:1012A00010309B6884001B590B4A934203D09D4227
:1012B00001D001F09DFC074B9B681D51BFF35F8F70
:1012C000BFF35F8F0022024B1A6086F3108870BD57
:1012D000240100D000ED00E0CD010010F0B557462C
:1012E0004E46DE464546E0B585B006000291170041
:1012F000EFF3108B72B6674A1368002BFCD0BFF374
:101300005F8F0025644B5D579A46002D00DAA4E0FC
:101310006B00624C03935B199B009846A146C14445
:101320004B4652469B79103613705D4BB2009B685A
:10133000019299580B1B2F2B34D95A4B994200D04C
:10134000A4E0039B584A9C46584B6544AD00635348
:10135000434602336519E418554B0121043B1B1B1E
:101360001B055B0D13436B80524BEF71AB80FF236A
:10137000AB71029BAB604B460B431900484B019A83
:101380009B689950BFF35F8FBFF35F8F0022414B83
:101390001A608BF3108805B0F0BCBB46B246A94674
:1013A000A046F0BD01200A008243D379BB422FD86A
:1013B00045464E46130040491B1B5B415943090DEE
:1013C0003A4B63533A4B02356519043B5B1B1B05D3
:1013D000354D5B0D2B4373800426B446E0444444F2
:1013E000131F1B1B4C46A17102991B05A1604946A6
:1013F0005B0D2B43A380314BE77101431360BDE7C5
:101400005800C01880002018C679BE422BD90200AF
:101410000623D356002BF3DA101D82462848804657
:1014200004267642B446E14450464E46361A30050C
:10143000400D824656461C48957106439680039A95
:10144000944665441D4AAD00641922604246A3716A
:10145000029BA280E771A36090E701F0C9FB002521
:1014600053465D5754E7101D82469088400500158D
:1014700084464046D444664604302018301AE0269C
:101480000005400D360230438046C9E701F0B0FB4D
:1014900057E7C046240100D0C51D00201C0E0020C7
:1014A00000ED00E0CD01001000E0FFFF00A1FFFF14
:1014B0004C0E002001BDFFFFAAAA00000148804792
:1014C00001BD0000F0B5DE4657464E464546E0B544
:1014D0000C0083B0EFF3108972B6584A1368002BE2
:1014E000FCD0BFF35F8F564B9A68030010339F0008
:1014F000D559544A9046954232D0A54243D0524ED7
:10150000AA1B2F2A2CD801228240924651464F4ACC
:1015100012681140019151464D4A1160BFF35F8F2F
:10152000EFF305829346002A33D101232A009A4320
:1015300093689C4208D177E04B005B189B00F3183E
:101540009968A1422AD01A00062151560029F3DADF
:10155000019B002B19D052463E4B1A603B4B1A6040
:10156000374B9B68DD51BFF35F8FBFF35F8F002266
:10157000324B1A6089F3108803B0F0BCBB46B24608
:10158000A946A046F0BD1500EAE75246304B1A6066
:10159000E6E79342C9D001F02BFBC6E70621595676
:1015A000002921DB4A005018800034188046A068CA
:1015B0009860E079D871062020569871002824DBC5
:1015C000A488F01A6405241544440019E024000599
:1015D000400D24022043988052181F4B9200B618E9
:1015E0001A781970B271B3E7594600290FD1FF314B
:1015F00091711A49918018490A789A71184A9B1B6F
:101600005B415A43120D0A70A2E71648E3E7164AF7
:101610001649D21A083A5002400D014399801449E4
:1016200052080A43DA8093E7062151561300002935
:10163000B8DA5A46002AEAD14546DCE7240100D050
:1016400000ED00E0CD0100101C0E002000E100E0E4
:1016500080E100E080E200E0C51D002001BDFFFF49
:10166000AAAA000001BD0000560E002000F0FFFFF6
:1016700000F8FFFF70B5EFF3058101240443EFF399
:10168000108C72B6214A1368002BFCD0BFF35F8F19
:101690001F4B05001F4AED1A6D416A43120D1E4D86
:1016A0008900AE6852B27658A6421CD0062159561F
:1016B00091421CD012215956914222D01E215956D6
:1016C000914220D02A2159560324914210D0134B25
:1016D00019781A708171BFF35F8F00220B4B1A606B
:1016E0008CF3108870BDAB680D4C5C50EFE70024A4
:1016F0006100091989005B18FF21997109499980D6
:10170000E5E70124F4E70224F2E7C046240100D013
:101710001C0E0020AAAA000000ED00E0C51D00205C
:10172000CD01001001BDFFFF054B064A1360064ABC
:10173000136053609360D36013615361936170478A
:101740008080808000E400E004E400E000B5074B06
:1017500083B001000093002205230548FFF7E4FC55
:10176000002801DB1F23181A03B000BDC058001069
:10177000CA1D0020024B9C466144890001607047ED
:101780004000003410B50400FFF72AFD01002000DE
:10179000FFF7F0FFFF232371BFF35F8F10BDC0463B
:1017A00010B50400FFF71CFD01002000FFF7E2FF69
:1017B000FF23A380BFF35F8F10BDC04610B50400A8
:1017C0000120FFF719FD044B9C4660448000206017
:1017D000BFF35F8F10BDC04640000034034B9C46F2
:1017E000614489000160BFF35F8F7047400000349F
:1017F00083680B4810B584466144624409011201B4
:101800009A18591854684B6801209C4201D802D09C
:101810000020C0B210BD12680B689A42F9D8F7E7F1
:10182000FFFFFF0F0A4B1968EFF3108072B60A68CA
:10183000002AFCD0BFF35F8F1B68BFF35F8F0022CD
:101840001A6080F3108840BF002000217047C04616
:101850008C1D0020F8B557464E464546DE46E0B59D
:1018600099460CAB1C780DAB1B78060090469A4647
:101870000768002C11D1BC7B002C42D065003B686E
:101880002D19033D59194B78BB73002B00D1FB7305
:1018900000238B704B700B7004E065003B682D19C2
:1018A000033D5919B2682A4B94464246E3181B017E
:1018B00063441A604A465A600A9A9A600B9ADA6040
:1018C00000238B704B700B707B7B9B46002B2BD0C7
:1018D00022005946B8687B6898473A68002816D0B5
:1018E0005B4658465B005B445519033BA870D11812
:1018F000D35C002B00D06B705B460C707B73A345F0
:1019000013D0F0BCBB46B246A946A046F8BD5B4624
:101910005B005B44033BD3189C705119525D002A55
:1019200000D05A705B460B707C7342464B46307D4C
:1019300000F0CCFB051E06D05346002B03D121003E
:10194000306800F0EDFD0E9B002BDAD01D70D8E75B
:10195000FFFFFF0FF0B5DE4657464E4645460023D3
:10196000E0B58BB00893664B8200D45800239B46A9
:10197000099000F021FB626806000F00EFF310856C
:1019800072B61368002BFCD0BFF35F8F23689C46B0
:101990005B7B9946002B68D0A2685A4B90464B441B
:1019A0001B01984443461A685B6810001900801BAD
:1019B000B941002963DD099800F088FB002300226B
:1019C000984600230692079300239A466368BFF364
:1019D0005F8F5A461A6085F310885346002B08D152
:1019E0000028C6D10BB0F0BCBB46B246A946A04603
:1019F000F0BD089B414618024B461843D047626829
:101A000006000F00EFF3108572B61368002BFCD0B0
:101A1000BFF35F8F002F4FDB33003B4302D02369BE
:101A2000002B60D12368D97B002907D04A005218C7
:101A300019688C4649466244033A51709A7B002AE1
:101A400001D14A469A734A46DA734B46E168013B34
:101A5000CA5C0132CA545B4623616368BFF35F8F7F
:101A60005A461A6085F3108883E7002300229846BF
:101A7000002306920793002300209A46A6E7002938
:101A800001D1002897D10021604600F0C7FC4346F1
:101A90001A685B680692079343469B689A464346DA
:101AA000DB689846E3684B44013B1B7808931B02B4
:101AB00003432361002089E72369002BB2D0069AF3
:101AC000079B921BBB41002B15DB5946049101215A
:101AD00003914946029141460191514620000091EF
:101AE000FFF7B8FEB7E700F067FA32003B001218C4
:101AF0004B41002BE9DA0122034B5242E5E7C04695
:101B0000701C0020FFFFFF0FFFFFFF7F10B5144C7C
:101B10006368002B04D00A211248FFF72BFE10BD8A
:101B20002300114A1021206800F092FB032000F0EE
:101B300037FA032000F03AFB03200C4900F080FA4A
:101B4000FFF74EFB0A4B9C4603232375D0231B064D
:101B50001B6860446375074B80006060DC60DAE7F7
:101B6000640E00208C1D0020F11700105519001084
:101B700040000034701C002000487047640E0020B4
:101B8000F0B557464E464546DE46E0B585B0019372
:101B900010AB1B780600039300239A4698460092E8
:101BA0007268EFF3108972B61368002BFCD0BFF394
:101BB0005F8F3568AC7B002C49D067002B683F19DC
:101BC000033FDB195A78AA73002A00D1EA73B1687F
:101BD000484A8C4600980199A2181201624410608C
:101BE00051600E9991600F99D16042469A705A7077
:101BF0001A706B7B9B46002B45D022001900A86809
:101C00006B6898472A68002830D05B4658465B00CE
:101C10005B44D719033BB870D118D35C002B00D0BC
:101C20007B705B460C706B735C452DD0F3681B19A1
:101C3000013B18787368BFF35F8F42461A6089F3DF
:101C400010885346002B2CD10002204307E0736814
:101C5000BFF35F8F1C6089F310880120404205B0FC
:101C6000F0BCBB46B246A946A046F0BD5B465B0051
:101C70005B44033BD3189C70D119D25D002A00D07D
:101C80005A705B460B706C73307D009A019B00F0BC
:101C90001DFA82460028C9D02100306800F040FCBF
:101CA000C4E7039B002B23D00E9B00200F9998477D
:101CB000030004000D000B431AD000290ADA009A31
:101CC000019B121BAB4100920193002B0ADB039B8B
:101CD0009A4665E700F070F924184D41009401958B
:101CE000002DF4DA0123044C5B4200930194EEE7EB
:101CF0000020B4E7FFFFFF0FFFFFFF7F70B54268D2
:101D00000400EFF3108572B61368002BFCD0BFF30C
:101D10005F8F2068CEB2437BB3420AD0FF230B40D3
:101D20005A00D318026894466344033B9B78002B07
:101D300013D0E268FF2394460B406344013B0A0A38
:101D40001978D2B291420ED000206368BFF35F8F42
:101D500000221A6085F3108870BD22698A42F3D18F
:101D600000202361F1E7310000F0DAFBEDE7C04627
:101D7000407D7047F0B504000D0006267642F71747
:101D8000C64636196F4100B584B08F4214D811D0C1
:101D900000F012F932003B00121A8B41002B15DCC7
:101DA000002B3ED02000290000F03AF904B080BC9E
:101DB000B846F0BD8642EBD90026002700F0FCF8BB
:101DC00032003B00121A8B41002BE9DD0023029305
:101DD0000193154B3200009314483B00FFF7D0FEEF
:101DE0000028DFDB00239846BC46114A114F7B6A6E
:101DF0009C4504D8B96A8E42D4D99C45D2D1116889
:101E0000EFF3108072B60B68002BFCD0BFF35F8F2E
:101E10001368BFF35F8F4146196080F3108820BFBD
:101E2000E5E7002ABED0D1E725180010640E002097
:101E30008C1D00200040054070B5060000F0BCF885
:101E4000FA2204000D00002330000021920000F06F
:101E5000B5FF00196941002902DBFFF78BFF70BD58
:101E6000012001494042F8E7FFFFFF7F70B5EFF323
:101E7000058305000C0084B0002B0AD0164A002010
:101E8000536A9C4203D8926A0130AA421FD304B01D
:101E900070BD124E02930193114B0200009330006B
:101EA0000B00FFF76DFE011EE8DD20BF3000FFF7DD
:101EB00025FF094B0020596A8C42E8D89B6A013003
:101EC000AB42E4D2641A631E9C41E0B2DFE7E41A3D
:101ED000631E9C41E0B2DAE700400540640E00203A
:101EE00025180010F0B5EFF30582D6464F4646465A
:101EF0001000C0B51038EFF3108872B6214C23687B
:101F0000002BFCD0BFF35F8F0123190081401E4DD1
:101F10001F006963AA461D4D29601D4D2E78AC46F1
:101F20003500C5402F402B4209D1BFF35F8F27609A
:101F300088F31088E0BCBA46B146A846F0BD5346C7
:101F4000144D5F6A83005D59AF420ED3124A8E432F
:101F50009B5862461670BFF35F8F0022226088F3A1
:101F60001088002BE6D09847E4E70C4B92009C4683
:101F7000624413681360BFF35F8F0023236088F30C
:101F80001088D7E7280100D0004005403C7005408C
:101F9000C91D0020981D002090160020D03F05404C
:101FA00010B50100024A0348FFF79CF810BDC04677
:101FB000DC580010C41D0020034B596A0A00986ABF
:101FC000596A8A42FAD170470040054070B5040052
:101FD0000D00124A536A1900966A536A8B42FAD16D
:101FE0003000190024184D41AB4211D80ED02B00FF
:101FF0000A494A6A9A42FCD307D1084A02E0516A68
:10200000994202D1916AA142F9D370BDA642EED99C
:10201000012301246442E5175B42E9E700400540E3
:10202000064A536A9942FCD807D1044B02E05A6A27
:10203000914202D19A6A8242F9D37047004005402A
:1020400070B504000D00EFF3108672B61A4A1368DB
:10205000002BFCD0BFF35F8F002D1BD02000FFF7BB
:102060000BF9164981420AD02000FFF70DF9012132
:102070002000FFF7D1F80123A340114A1360114B50
:10208000A400E550BFF35F8F00220B4B1A6086F36C
:10209000108870BD0B4BA200D5500122A2400A4906
:1020A00020000B7893430B700449FFF70BFA0021D3
:1020B0002000FFF7B1F8E5E7280100D0E51E001089
:1020C0003860054090160020C91D0020F0B54F462D
:1020D000D6464646C0B507002F4C616A0D00A66A79
:1020E000616AA942FAD18B4208D805D00120E0BC30
:1020F000BA46B146A846F0BDB242F7D9EFF3108A0E
:1021000072B6264801680029FCD0BFF35F8F012515
:10211000BD402349204C8846097889462943C9B2E5
:102120008C46414660460870391D1E48890065632B
:102130000A51B9000B50216A0020294219D0616A66
:102140000800A66A616A8142FAD18B4219D801D18E
:10215000B24216D8CC451DD00F4B1F201D625D63C7
:1021600001230740BB40104A1E38136043464A46CD
:102170001A70BFF35F8F0022084B1A608AF3108831
:10218000B5E70020BFF35F8F0022044B1A608AF38B
:102190001088ACE70120ECE700400540280100D0A2
:1021A000C91D0020981D002080E200E0EFF3108C94
:1021B00072B60A490B68002BFCD0BFF35F8F012376
:1021C0008340074A0748136202789A430270BFF3BC
:1021D0005F8F00230B608CF310887047280100D0BC
:1021E00000400540C91D002070B505001400160010
:1021F000002915D00C00002A12D080686B6898471F
:10220000296800280ED073009B196200033B121945
:10221000CB18033A9C7088188A5C002A15D1067086
:10222000200070BD63001B197200033B9219CB188C
:10223000033A9E7088188A5C002A02D10470340028
:10224000EEE75A7004703400EAE75A700670E7E768
:1022500030B583600023CCB2437301330473426012
:102260008373C4730D000068012C06D9421C01332E
:10227000DBB2137003329C42F9D1FF2129404B009D
:102280005918002340180338437030BDF8B5CE46C6
:10229000474606000C0080B5002907D04D000368B2
:1022A0006D18033D5A195778002F04D12000C0BC87
:1022B000B946B046F8BD7900C91903398846434488
:1022C0005978894600215970517073683A0021008D
:1022D000806898473368002814D042469A18947052
:1022E00059195B5D002B00D053700F7027004946D1
:1022F0003000FFF7CBFF390002003000FFF774FF1A
:102300000400D3E7424641465D19AF709A185B5C02
:10231000002B00D06B701470E9E7C046F0B557464B
:102320004546DE464E46E0B50D006B0001685B1980
:10233000DF1E0400C85D83B00192CA19002850D086
:1023400043001B18033BCB185E78B446002E1AD10D
:10235000019E002E42D0E67B002E04D073009B1914
:10236000CB18033B5D70A37B002B00D1A573E573F5
:1023700000282FD10023537003B0F0BCBB46B246F7
:10238000A946A046F0BD72006244033A89184A7813
:10239000904600224A7091465A7001003200200097
:1023A000FFF722FF43468246002B07D05B002168DF
:1023B0004344033BCB185A78002A16D14246514673
:1023C0002000FFF711FF2168019BCA19002BC2D121
:1023D0000028CFD043001B18033BCB180021997075
:1023E000C8E7019B002BB6D1C4E750008018033822
:1023F000091848788346484648705870414620007E
:10240000FFF7F2FE594680462000FFF73FFF4146A6
:1024100002002000FFF7E8FE8046CFE7F0B5574600
:102420004546DE464E46E0B583B00191457B04004B
:102430006B0000685B19DF1EC15DC219002952D014
:102440004B005B18033BC3185E78B446002E1CD1CA
:10245000019E002E44D0E67B002E04D073009B1911
:10246000C318033B5D70A37B002B00D1A573E573FC
:10247000002931D1002328005370617303B0F0BCF0
:10248000BB46B246A946A046F0BD72006244033A7C
:102490008018427890460022427091465A7020007F
:1024A0003200FFF7A1FE43468246002B07D05B00B7
:1024B00021684344033BCB185A78002A17D142467F
:1024C00051462000FFF790FE019B01002068C219D1
:1024D000002BC0D10029CDD04B005B18033BC318A3
:1024E00000209870C6E7019B002BB4D1C2E75000D2
:1024F0008018033809184878834648464870587051
:1025000041462000FFF770FE594680462000FFF745
:10251000BDFE414602002000FFF766FE8046CEE782
:1025200070B5040000292CD0437B8B422ED0056867
:1025300048004018033828188278002A21D0530018
:102540009B18033BEA5CEE188A4202D11BE0002A8A
:1025500008D053009B18033BEB185A788A42F6D1F7
:1025600042785A7000230122837043702000FFF7E5
:10257000D5FE617B02002000FFF736FE607301206C
:1025800000E0002070BD43783370EBE701221900B2
:10259000FFF7C4FE60730120F4E7C046F8B50400FD
:1025A00006200D0000F0C8F9002844D02A4B2B4922
:1025B000E21853425A418023DB039C469205284B84
:1025C00062441A60274B1A6010008B689843FBD155
:1025D000214B8021E3185A425341234A5B004900B2
:1025E0009952062000F0A8F92900C00000F060FB15
:1025F000C30921D140270121260080256162A36201
:1026000000232C36AD0135432B60062000F094F9F1
:102610003900800000F04CFB6023E26A53406E22D8
:102620001A4080235B0133431A60104B236310234D
:102630002B600D3BA364F8BD0D4A934203D90023E0
:102640000C4F0D49D8E77F221040013040089F0110
:1026500019003F180300CFE70080FCBF00C0004016
:1026600000E0004000F00040A81D00200103000031
:10267000FEFF0000C0FF3F00FFFF000030B50C2050
:1026800083B000F0B7F9FEF725FD00280ED0944B7B
:10269000944A1A605A609A60DA601A615A619A61C3
:1026A000DA611A62904A5A6203B030BD8F4CA0675B
:1026B00000F0F4F901228E4B1A60636C012BFCD1FF
:1026C00003228C4B1A60894A936B012BFCD1013396
:1026D0000121894A89480093043300F033F9052326
:1026E000874A00930121874800F02CF9864B5A68ED
:1026F000FF2A02D8802252005A608022784C7D4BFB
:1027000021691201804D1A60002905D0606900F02E
:10271000CFFA01300138FDD1E0217B4B02201A684D
:102720001140802252012A43116019684840032158
:102730000140116004219A681142FCD0802280215E
:1027400092012A4309011160802252005A606F4BA6
:1027500023616F4B5968FF2900D85A600321644AEE
:102760006B4B116002399A681142FCD0E0201A6864
:102770001040802252011A4310601868484003211B
:1027800001400220116062498A681042FCD0802218
:1027900092011343802212011A6080225D4B520085
:1027A0004A6063615C4B5968FF2900D85A608022F7
:1027B0005A4BE1691201584D1A60002905D0606931
:1027C00000F076FA01300138FDD1E02252490B6861
:1027D0001A4080235B012B431A60802380229B01D7
:1027E0002B4312011A6080223E4B52004A60E36183
:1027F0004B4B5968FF2900D85A608022494B216A07
:102800001201474D1A60002905D0606900F050FAA6
:1028100001300138FDD1E02241490B681A40802384
:102820005B012B431A60802380229B012B43120102
:102830001A60802380225B004B602A4BD202236205
:10284000394B5968914200D25A608022374B616AF5
:102850001201354D1A60002905D0606900F028FA90
:1028600001300138FDD1E0222F490B681A40802346
:102870005B012B431A60802380229B012B431201B2
:102880001A608023DB024B60174B6362284B5A6847
:10289000FF2A02D8802252005A608022254BA1696B
:1028A0001201234D1A60002905D0606900F000FA7A
:1028B00001300138FDD1E0221D490B681A40802308
:1028C0005B012B431A60802380229B012B43120162
:1028D0001A6080235B004B600E4BA361E4E6C046A8
:1028E000B4170020006CDC021BB700000080004021
:1028F0003CB0004030B00040002F685900800240DA
:10290000008C864700C0024030800040001BB700AA
:102910003C800040405973075480004054B0004050
:102920006080004060B000406C8000406CB00040AF
:102930004880004048B00040014B8000C0587047BC
:10294000B4170020F0B5C646040000B50C20904630
:102950001F000E0000F0ACF94101091A8D01691A3F
:10296000C90009188901404600F0A2F9069B3F04FE
:102970001A0323681743002B22DB1A4B1A4DE21867
:1029800053425A4180235B019C461203174B624419
:102990001A60174B1A601100AB689943FBD1C02233
:1029A000231D92011A4321232660A060136023682F
:1029B000002BFCDA0823E760136080BCB846F0BD4A
:1029C0003F2322681340B342D7D1A3681B051B0DD8
:1029D0008342D2D1EE22E368D2021340BB42CCD173
:1029E000EBE7C0460040FDBF00C0004000E00040F3
:1029F00000F000408023024A9B000343D3627047EB
:102A00000080054010B5140080221B4BD2051A60CF
:102A100000281AD00123194A1843194BDA61194AC0
:102A200042401A62596298628022134BD2051A60A2
:102A30001549164A1160E022D2041A60002C07D111
:102A40008022134B12061A6010BD0D4BD861EBE7C4
:102A500063011B1B9A008023121912015B049A4226
:102A600000D30C4A0C4B1A60054B5A608022084B6D
:102A7000D2051A60E8E7C04600B00540D3C007B0F1
:102A8000008005402D3FF84FFCFF01000820014069
:102A900000A00540FFFFFF00601C0020AA23064A9B
:102AA0001B0113602F230549D360054B1960536840
:102AB000002BFCDA7047C0460040024000B0FA002C
:102AC000006002402C4B2D4A70B51A602C4A2D4BE9
:102AD0002D491A6014008B689C43FBD12B4D2C4E62
:102AE000B54208D2013E761BB60808CD98472300B0
:102AF0000134B342F9D1FFF7C1FD264A214B1A60D8
:102B0000214A9368DB43DB01DD09002BF9D1402228
:102B1000214B224C224E9A675A671A67DA66B442F2
:102B200008D223682000002B20D00834FEF738FE9E
:102B3000B442F6D31B4E1C4CC022A168300000F0FA
:102B4000ADF9A660FEF73EFBFEF7EEFDFEF7DEFFF9
:102B5000164C174EB44208D2013E361BB60808CCBC
:102B600098472B0001359E42F9D170BD0834FEF71D
:102B700009FEB442D5D3DDE700E00040BFCDFBFE47
:102B8000FE7F3C0000F0004000C00040100F00201D
:102B9000200F0020FFFFFF0100F00140080F002080
:102BA000100F00200000002000ED00E0200F0020AA
:102BB000280F002000BEFDE710B5FFF7FBFFC04661
:102BC0000FB400B5084883B000F09AFA049B002BBC
:102BD00007D005A91800019100F018F8034800F08B
:102BE0008FFA0120FFF7E6FF00590010105900107E
:102BF00010B50148FFF7E4FF1459001010B5002884
:102C000000D110BD00F030FAFBE7C04610B5094A0C
:102C10000300146884B0002C08D0012200910648FB
:102C2000524203A9A047012004B010BD00F068FA89
:102C30000020F9E75C1C0020FD2B00100148042156
:102C4000014B1847900E00206D2C0010142310B576
:102C50000100188804331B88984710BD162310B54F
:102C60000100188802331B88984710BDF8B5474605
:102C7000CE4680B50F1E19D01423994604330400A4
:102C80000025012698464B461888434621681B8834
:102C9000984701C4431E9841013540420640AF4267
:102CA000F1D13000C0BCB946B046F8BD0126F8E706
:102CB000114A936F9B0813D210665166002905D004
:102CC000FFE7FFE7FFE7516F106F704704B500287B
:102CD00001D00020C04302F07BFD002104BDC046AE
:102CE000F0B5146E556E576F166FFFF7E5FF14665B
:102CF000556657671667F0BD000000D0132370B506
:102D00001D78012D15D010DD1C48FFF7A7FF1C4CC6
:102D100001008022200000F0C1F8022D06D01948E1
:102D2000FFF794FF184B186070BD154C174BA36448
:102D3000F5E7164B124C23606360A360E3602361E8
:102D40006361A361E36123626362A362E36223635D
:102D50006363A363E36323646364A364E36423653D
:102D60006365A365E36523666366A366E36623671D
:102D70006367A367E367A364D1E7C04653440000D9
:102D8000301000204C330000881D0020912D0010D1
:102D900007B5604601880A0A0230DF2AFAD1C9B2B3
:102DA000820804D3028840880004104300E00068D1
:102DB000014A5050039007BD301000205143434357
:102DC000C9188C46110C83B24B4310B4040C6143F8
:102DD00092B280B2504362431C041B0C001910BC19
:102DE00059411304120CC01851416144704700004E
:102DF000132310B512481C78FFF730FF0100012C97
:102E00000AD003DD80220F4800F048F80E48FFF793
:102E10001DFF0E4B186010BD0A4C5422200000F01C
:102E20003DF80B4B6365A365E36523666366A366A4
:102E3000E36623676367A367E3672362E361E5E70C
:102E400053460000301100204C330000881D002044
:102E5000552E001007B5604601880A0A0230DF2AA5
:102E6000FAD1C9B2820804D3028840880004104312
:102E700000E00068014A5050039007BD3011002067
:102E800001480421014B1847A00E00206D2C0010B2
:102E9000014B1B6818470000A00E0020014B5B6827
:102EA00018470000A00E0020030010B50800110014
:102EB0001B68984710BDC046F0B546464F46D646FB
:102EC000C0B5437D80460E001700002B46D0002A77
:102ED0003FDD4B1E9946244B0125002400209A46D5
:102EE0000DE04B461B5D0D3B5A425341325DDBB258
:102EF0000A2A0BD02B00013401359F421ADD002C29
:102F0000EFD14346325D1B7D0A2AF3D1002BF1D16C
:102F1000A04204DA4346211A1B68301898474346FA
:102F200050461B6802219847013428002B000135C8
:102F30009F42E4DC874204DD4346391A1B6830189F
:102F40009847F619013E33780D3B5A4253414246A9
:102F50001375E0BCBA46B146A846F0BD036811003F
:102F600030009847F5E7C04688590010F0B5DE46B6
:102F700057464E464546E0B585B017001C00060092
:102F80000D00FFF719F80023304A12184B41002BAF
:102F900058DB2F4908008A4602F042FC01906B1C66
:102FA00003D1300002F0CAFB0500002C25D1294BCB
:102FB0009846294B1C68002C15D0002F20D1274F94
:102FC00002E02469002C0ED02368002BF9D03B6866
:102FD000002B01D0A342F4D120002A003100C047C9
:102FE0002469002CF0D1019B002B27D105B0F0BC47
:102FF000BB46B246A946A046F0BD194B9846D8E755
:10300000164B994602ABDF1D0A239B4602E024695A
:10301000002CE8D02368002BF9D04B461B68002B0E
:1030200001D0A342F3D12A0031002000C0475B4603
:103030000122390020003B70C047E8E7504602F00B
:10304000B7FBD3E70122074B5242A2E740420F00F1
:10305000080F0020B92E0010441800204C18002042
:10306000A92E0010FFFFFF7FF0B5CE46474680B582
:1030700083B06B460600DD1D2870FEF79DFF002320
:103080001A4A12184B41002B2BDB194908008846BD
:1030900002F0C6FB174B81461C68002C14D0164F5B
:1030A00002E02469002C0FD02368002BF9D03B6884
:1030B000002B01D0A342F4D1200001222900FFF708
:1030C000FBFE2469002CEFD14B46002B05D13000CC
:1030D00003B0C0BCB946B046F0BD404602F068FB44
:1030E000F5E70122054B5242CFE7C04640420F00B0
:1030F000080F0020441800204C180020FFFFFF7F1D
:1031000070B5040002F01AFB002301000500012243
:103110002000FFF72BFF084B1C68002C06D06368CB
:10312000002B05D098472469002CF8D1280070BDE9
:103130002469002CF3D1F9E744180020F0B5CE46FD
:10314000474680B583B06B460600DD1D2870FEF74C
:1031500033FF00231A4A12184B41002B2BDB19496D
:103160000800884602F05CFB174B81461C68002C67
:1031700014D0164F02E02469002C0FD02368002BD6
:10318000F9D03B68002B01D0A342F4D120000122EA
:103190002900FFF789FE2469002CEFD14B46002B54
:1031A00005D1300003B0C0BCB946B046F0BD4046C2
:1031B00002F0FEFAF5E70122054B5242CFE7C04686
:1031C00040420F00080F0020441800204C18002037
:1031D000FFFFFF7F0A4A1368002B05D10CE01A009D
:1031E0001B691032002B07D09842F8D1002902D178
:1031F00003691360016170470029FCD01060FAE791
:103200004418002010B500F013F900F00DFB012068
:1032100010BDC046F0B5CE464746040080B583B029
:10322000FEF7CAFE2600002736184F41002F30DB7C
:10323000B9461A4B1A4D984643461C68002C03D1D8
:1032400016E02469002C13D02B68002B01D0A34278
:10325000F7D1A368002BF4D0012101A898470028DA
:10326000EFDD6B46187903B0C0BCB946B046F0BD7F
:103270000C4B5A6A4A4507D39B6AB34201D24A456E
:1032800002D001204042EEE701200021FEF79EFE21
:10329000D2E70126044B76429946CAE7441800203B
:1032A0004C18002000400540FFFFFF7FF0B50D1EC9
:1032B00015DD0E4B0D271A680D4B4519D3185942D1
:1032C0004B410C495B005E5E20210478A64207D08A
:1032D00093691942FCD101301460A842F5D1F0BDC8
:1032E00093691942FCD11760F2E7C046AC1D00207B
:1032F0000080FCBFA81D002030B504000D1E26DD97
:10330000002010211B4B013C1A689369194219D106
:10331000013093691942FCD1136823548542F4D1DA
:10332000154B1B68002B0CD050239363516B183B3B
:1033300034320B401100802252010A4313600028EE
:1033400015D030BD0C4B1B68002BEDD1F7E70A4BB5
:103350001B68002B0BD050223821064B1B689A6348
:103360005A6B3433114080225201134319600320F9
:103370004042E6E7AC1D0020A0170020064B10B528
:103380001B68002B06D00021044A12689163044A8E
:103390001068984710BDC046A0170020AC1D002043
:1033A000A81700201D4BF0B51A68C64698461C4B5E
:1033B0000E00D31859424B411A4F14331C0005001C
:1033C00000B53B68002807D0002B11D0164B3D609C
:1033D0001E6080BCB846F0BD002BF7D09063002182
:1033E0002000FDF719FF20001049FEF76BF8EDE70C
:1033F00020000E49FDF748FF01212000FDF70CFFDA
:103400004346502238211B689A635A6B343311406B
:103410008022520113431960D8E7C046AC1D00203A
:103420000080FCBFA0170020A81700207D330010EB
:1034300010B50C4B0C4C1B780C4B02211B780C4B21
:1034400000202360FDF710FE02210120FDF70CFE95
:10345000E12120684902FFF7A1F801210548FFF7A3
:10346000B9FE10BDD05B0010AC1D0020D45B001075
:1034700000400340B00E00207047C0460022014BC0
:103480001A707047C61D00204B790020FF2B0BD10E
:103490008B79002B08D1CB79012B05D1082A03D9D0
:1034A0008A78024B09301A707047C046C61D00204A
:1034B0000120704770B5012909D115495379107958
:1034C00009781B0203430020994202D070BD0120FD
:1034D000FCE75378012B08D0022BF7D1002064229F
:1034E0000021FFF78FFA0120F0E79478D2780500E9
:1034F00012021443D20502D5620A93401D0005480A
:10350000FFF7A4FB7F210300214028009847C04615
:10351000C61D00205542000001230370004870477B
:10352000CC59001048780B788A78000218431204AE
:1035300010439622CB7810B51B060343D20093426A
:1035400000D010BD0348FFF781FB002103000800F5
:103550009847C04655420000024B1860024B196064
:103560007047C046A4170020AC17002010B5024BCE
:103570001878FDF763FE10BDC71D0020114B70B514
:103580001A68002A1AD0EFF3108172B6106800286A
:10359000FCD0BFF35F8F00220B48596002701B689C
:1035A000BFF35F8F1A6081F3108800240025074B5A
:1035B0001878FDF743FE2900200070BDFA2400258D
:1035C000A400F4E7681C0020C81D0020C71D0020CF
:1035D00070B5040000200E0001F002FB002835D079
:1035E000002001F015FB002830D0FEF7E5FC002399
:1035F000184A12184B41002B24DB174D280002F00B
:103600000FF9002822D0002001F0EAFA00280BD19F
:10361000012000210324404200F0CCFC6442280039
:1036200002F0C6F8200070BD002001F0F1FA002879
:10363000EED021003200002001F0F6FA041EEED197
:10364000033CECE70122054B5242D6E703246442D7
:10365000E8E7C04640420F00901D0020FFFFFF7FBB
:10366000F8B5DE46574680B505000C00FEF7A4FC11
:103670000023364A12184B41002B5ADB344908000C
:103680008A4602F0CDF8002803D1C0BCBB46B24642
:10369000F8BD002001F0A4FA00284ED00026002C2E
:1036A00043DD2C4B9B4614E0A919002001F030FBB0
:1036B000070001200021404200F07CFC002001F0C6
:1036C000EBFAFEF779FC234BF61918605960B44207
:1036D0002BDD002001F036FBA71B0200B84200DD05
:1036E0003A00002AE0D101200021404200F062FCB3
:1036F000002001F0D1FA002001F072FA002814D065
:10370000002001F01FFB0028E1D1FEF755FC5B46CD
:103710000F001A685B68002184460F4812184B415D
:103720009F4202D8D3D19445D1D9504602F040F8F7
:10373000ABE70122094B5242A0E700200021054BD4
:1037400018605960504602F033F89EE740420F007F
:10375000901D00202810002020A10700FFFFFF7F00
:1037600010B5244C84B00021200002F041F800285C
:103770001CD1214B1A68002A16D0EFF3108172B6C3
:1037800010680028FCD0BFF35F8F01241B485960EC
:1037900002781B68D2B20470BFF35F8F00201860FC
:1037A00081F31088002A0AD004B010BD0120002146
:1037B000404200F0FFFB200001F0FAFFF4E7FEF7C3
:1037C000DBF90400FEF7F8FBFA220023920012183E
:1037D0004B41002B09DB0121029100210191084995
:1037E00020000091FEF7CCF9DEE70122054B5242A2
:1037F000F1E7C046901D0020681C0020C81D002075
:103800007D350010FFFFFF7F054B10B518680028BD
:1038100004D0044B0022196801F044F810BDC046E2
:10382000A4170020AC170020D02310B51B0684B0CD
:103830001C68FEF7A1F9FEF79BFAA04202D0002017
:1038400004B010BD264B1B7801F066FC2548FDF73F
:1038500099FF0120FDF77AFFFF23234C23492070B5
:103860001840FDF711FD20780121FDF7D5FC05205A
:10387000FDF7ECFC002822D1FEF77EF90400FEF7EC
:103880009BFBFA220023920012184B41002B22DBF3
:103890000121029100210191154920000091FEF7BC
:1038A0006FF90822040000211248FFF7F1FA002CFA
:1038B000C5DB11480121FFF78DFC0120C0E7002284
:1038C0000E490520FDF70AFDFDF78AFC01000948B5
:1038D000FDF784FFEDE70122094B5242D8E7C046CD
:1038E000D85B0010901D0020C71D0020613700101C
:1038F0007D350010681C0020C80E00206D350010BA
:10390000FFFFFF7F00487047845A0010004870474F
:10391000305A001070B5040017480378002B21D0EE
:10392000002C06D1C1241548154BA4004380048007
:1039300070BD052C1DD8134B1048A400E558811C00
:10394000002304E001330A800231132B0ED0EA5C1D
:10395000DCB2002AF6D1C0230134E4B264009B003B
:103960001C43E4E7112100F017F8D9E7CA24A400AA
:10397000DDE70020DCE7C046B01D00201C18002059
:1039800009040000985A001010B5024800F0D8F859
:1039900010BDC046801D002030B54B1E012900D14E
:1039A000A7E0664A11780D112C0030349F2900D908
:1039B000A2E00470012B00D1BEE00F211478214059
:1039C0000C003034092900DD98E04470022B00D14E
:1039D000B2E054782511290030319F2C00D990E0B5
:1039E0008170032B00D1A7E00F2121400C0030345F
:1039F000092900DD87E0C470042B00D19CE0947895
:103A00002511290030319F2C00D97FE00171052B51
:103A100000D191E00F2121400C003034092900DD54
:103A200076E04471062B00D186E0D4782511290078
:103A300030319F2C00D96EE08171072B00D17BE0E3
:103A40000F2121400C003034092966DCC471082B99
:103A500000D171E014792511290030319F2C5FD8F5
:103A60000172092B68D00F2121400C003034092944
:103A700058DC44720A2B5FD054792511290030316B
:103A80009F2C52D881720B2B56D00F2121400C0055
:103A9000303409294BDCC4720C2B4DD0947925119C
:103AA000290030319F2C00D9073101730D2B43D0F1
:103AB0000F2121400C003034092901DD37310C0081
:103AC00044730E2B38D0D1790C11220030329F294B
:103AD00000D9073282730F2B2ED00F220A4011001B
:103AE0003731092A01DC30321100C173102B23D089
:103AF00010300023037030BD07345AE737310C0013
:103B000063E707316CE737310C0074E707317DE775
:103B100037310C0085E707318EE737310C0095E728
:103B200007319DE737310C00A3E70731AAE73731AA
:103B30000C00C4720C2BB1D1C018DAE7801D002034
:103B400030B5002589B004000922002101A80095A4
:103B5000FFF79EF90922002105A80495FFF798F9BF
:103B60004B236A466846137004A90D2201F018FE23
:103B70001521082220006944FFF790F909B030BDF3
:103B800010B501210520FDF747FB10BD10B500223F
:103B90000021024800F05AF910BDC04670180020FC
:103BA0008022024B5202DA647047C0460020115056
:103BB000F0B5C64600B5060000F022F90C231B4DF7
:103BC000FF22AB6705201A49FDF788FB4023984682
:103BD000184C402200212000FFF75AF943460127E4
:103BE000238321210023144A6770A2601360635469
:103BF0005F31618441462187053963540F4A10497A
:103C00006360E260A1620B606362E26201F000FE49
:103C100080239B052F64EB6490230A4A3000EA500E
:103C2000FFF7BEFF80BCB846F0BDC0460000115093
:103C3000F90400205018002084001050000110509A
:103C40008000105010D001000B785B0602D14B7839
:103C5000052B00D070478A78014B1A60FAE7C046FE
:103C600000001150F0B5C64600B54B790C791B0227
:103C700088782343CC787F21A4070140C509A20F8F
:103C80004F001400324E7A195201B2189070012080
:103C90006840507000205B055B0DD0701383D476B4
:103CA0008046CA00012D33D02A48844688016244E8
:103CB0008446B4446046826040461060002933D098
:103CC000254AC90090466246414451603F223F3335
:103CD0009343022C00D15B0020487A1901685201FD
:103CE000B218D1601E4ACB18036051405340802265
:103CF00088465201934228D84346A4061C43802399
:103D00007F197F011B06F6191C4373681C6011E0C4
:103D100014488446880162448446B4446046826202
:103D200040461060002909D100236D0176197360A7
:103D30000D4BF360012080BCB846F0BD084AC900B5
:103D40009046624641445162C0E7FEF751FFD3E717
:103D5000501800208400105004001050641C0020F3
:103D600000001050800010500001105010B501F0FC
:103D70004FFD10BD10B57F200C0020404000E4092D
:103D8000110000191A00034B4001C01800F05EF842
:103D9000012010BD501800207F22130010B50B40E9
:103DA0000A420BD0C9098022580040180649400138
:103DB00040181201002101F04BFD10BD0222034802
:103DC000C909521A8266EEE75018002000201150EF
:103DD0007F22100010B508400A4200D110BD002318
:103DE000C90940004018044940010818002203494D
:103DF000C37001F02DFDF1E750180020FFF7FFFF21
:103E000080220D4B520410B51A600C4B0C491A60FD
:103E100010008B689843FBD10A4C9C2200212000A3
:103E2000FFF736F88022002152010748FFF730F8EB
:103E30000923636710BDC04600E0004000F0004069
:103E400000C00040000011500000105070B5837E8B
:103E500004000D001600002B17D10023E38201336C
:103E60002000A682A376256101F0BAFC002804D0C8
:103E700080219023084A8902D150200001F0A0FC43
:103E8000002805D00123237770BD01F0D9FCE4E7B9
:103E9000200001F0CDFCF7E700201150024B5878CC
:103EA000431E9841C0B2704774150020024B187829
:103EB0004007C00F7047C04674150020034B1878A8
:103EC000FF38431E9841C0B27047C046040F00201F
:103ED000F8B5CE46474680B52C4E05003378012014
:103EE000FF2B03D0C0BCB946B046F8BD5322002119
:103EF0002748FEF7CDFF274C2000FDF743FC264B5B
:103F00001C60264C20001430FDF758FC200001F006
:103F1000D1FB234B234F1C60234B9846002B04D02E
:103F20003800FFF7F9FA214B1860424600243B782D
:103F3000002A23D01E4A90461C4A9146A34212D81A
:103F40000FD14346984701343B78E4B2A342F5D2FF
:103F500028003570FFF72CFE2800FFF711FE012026
:103F6000C0E70020BEE74A461268630094461B196A
:103F7000DB006344002BF4D01B68E3E700F0EEFEA7
:103F80003B780020002BADD1E2E7C046040F0020B3
:103F9000741500202C150020C8150020E80E002004
:103FA000CC150020C11D0020193500104C12002036
:103FB0005D4D0010F0B5DE4657464E464546E0B52D
:103FC0008BB001F0AFF8002800D10FE1CD4BCE4D02
:103FD0009946CE4B07AC9B462E687269EFF3108171
:103FE00072B61368002BFCD0BFF35F8FB161300055
:103FF000210001F0A1F97269B369BFF35F8F00215D
:10400000116083F31088002800D1EFE06378082B5B
:10401000E2D84A469B00D3589F466368002BDBD00A
:10402000A0689847D8E77F222179B84E0A4050000F
:10403000CB093618F618300001273030C378BB435F
:10404000C370C3780337BB43C370002A00D1F2E0CA
:10405000AF4AF37C002A06D0AE4A1278934200D2CF
:1040600044E19B1ADBB2002B00D0BFE0AA4E62797C
:104070002078A368B047AFE75B4601221B78012197
:1040800013435A46137033235846D25C5E468A4324
:10409000C254C25C04208243F2540133F25C8A436E
:1040A000F254F25C8243F254237800209A4600F0E6
:1040B00005FD602223791A40602A0DD0402A00D1E4
:1040C000BFE0DB06DB0E012B00D137E1022B00D174
:1040D000D4E0002B00D1C3E020780021FFF75CFE84
:1040E00080212078FFF758FE76E7884E3378DB078B
:1040F00000D471E7894B002B00D16DE700E000BFD1
:104100006AE7824E3378DB0700D465E7844B002BE7
:1041100000D161E730780007C00F00E000BF5BE727
:104120007C4B7B4A9846002627781B78002A00D1D2
:1041300079E07C4A92469E425FD319D17A4B38008F
:104140009847434601361B78F6B2B342F3D26F4E1E
:10415000532200213000FEF79BFE1022FF21F01CAD
:10416000FEF796FE30002022FF211330FEF790FE6E
:1041700000F09AFC6D4B002B00D12DE700E000BF52
:104180002AE7644B624A9846002627781B78002A63
:104190001FD0644A92469E423AD321D1624B3800E6
:1041A0009847434601361B78F6B2B342F3D2574ED6
:1041B000532200213000FEF76BFE1022FF21F01C7D
:1041C000FEF766FE30002022FF211330FEF760FE6E
:1041D00007E0380000F000FE43461B78002BE6D0D5
:1041E0004A4E00F061FC2379B370F5E60BB0F0BCE9
:1041F000BB46B246A946A046F0BD524612687300BF
:1042000094469B19DB006344002BB1D05B6896E7B2
:1042100052461268730094469B19DB006344002BDE
:10422000DED05B68BBE7380000F0D6FD43461B7864
:10423000002B9DD18BE762792078A36800F052FCB7
:10424000CAE63B48002800D146E700F037FC0121D0
:10425000504608AA00E000BF002800D0BCE63BE7BB
:10426000202A00D19FE0002A00D035E76379092B8E
:1042700000D931E72F4A9B00D3589F467023217AFB
:104280000B4200D028E758460F330B405B00CE09A5
:10429000C0181F4F8019C07C002F06D01D4F3F78DB
:1042A000B84200D2A1E0C01BC0B2002800D097E005
:1042B000002A00D048E1204F0220627990468243D4
:1042C000012A00D143E14246002A00D004E75B44C2
:1042D0009E193036F37806AA9B07DB0F0232138053
:1042E0005046022308A900F081FB75E65A00D31856
:1042F0000C4ADB001268D318002B00D176E71E6948
:10430000B5E6C046105B0010CC15002074150020E7
:1043100019350010C11D0020D14F00100000000011
:10432000000000004C120020D94D001000000000D9
:1043300000000000345B00109C5B0010237A0F2B00
:1043400000D9C9E6AA4A5B44DB78002A05D0A94A0D
:10435000127893425ED39B1ADBB2002B00D0BBE6EF
:10436000A548A64E00F0AAFB01215046F36808AA12
:104370009847002800D02FE66022160023791E40BF
:104380001A4200D0A8E663790A3B012B00D9A3E6C4
:1043900000F094FB63790A2B00D120E1504608A974
:1043A00000F00CFB18E6237A0F2B00D994E6904A14
:1043B0005B44DB78002A06D08E4A1278934200D202
:1043C000E6E09B1ADBB2002B00D085E68A488B4ED4
:1043D00000F074FB01215046F36808AA98473BE7B8
:1043E0000027002A00D167E776E647003818844F97
:1043F000C0003F683F18002A00D15DE7002F00D1C0
:104400006AE6F86800F05AFB01215046FB6808AAEA
:10441000984721E77A4A5E00F3181668DB00F61821
:10442000002E00D158E6F0689CE7A27901927378DB
:104430009A4207D07378002B00D045E1019B002BF6
:1044400000D0E9E05B46019A504608A95A7000F096
:10445000B5FAC1E5737806AA0232137050460123FB
:1044600008A900F0C3FAB7E5E088030AC0B20F2B31
:1044700000D931E663499A008A58974608A800F0A7
:1044800023FB5046A179FFF781FB022233781343C7
:104490003370A1E5E388012B00D01DE608223378B4
:1044A00093435A46137079E70220317806AB9A1C81
:1044B0008B068908DB0F01400B4310E7E388012BD3
:1044C00000D009E6082233781343EAE74E4B002B6D
:1044D00000D101E600E000BF021E00D1FCE5D37868
:1044E00091781B020B43504608A900F07FFAB3E60F
:1044F000464B002B00D1EFE500E000BF021E00D1CB
:10450000EAE55046137808A900F070FAA4E621897C
:10451000FFF700FA021EF4D1DEE5022B00D111E113
:104520003B4B002B00D1D7E500E000BF0200002A82
:1045300000D1D1E5D3E7FFF7E5F91223020008A97E
:10454000504600F053FA87E62B482C4F5AE7E28892
:10455000002A08D142465B449E193036F378012A7E
:1045600021D09B072ED5002F00D135E5F86800F04B
:10457000A5FAFB6808AA012150469847002000F0E0
:104580009DFA34235A46D35CDB0700D524E505E7C2
:104590001B4A5E00F3181668DB00F618002E00D1E7
:1045A0009AE5F06814E79B07DDD51A4B1878FFF7FA
:1045B0000FFC0222F37893434246F370F37893435F
:1045C000F370D0E7134B1878FFF7E6FB0222F3787D
:1045D00013430122F370F3781343F370C3E706AB80
:1045E0009A1C5046012308A9167000F0FFF9F3E465
:1045F00019350010C11D0020ED4E00109C5B00100D
:104600004C1200205C5B0010000000000000000065
:1046100000000000040F0020581EC0B2FFF776F91A
:10462000002800D158E543780593022B00D053E5CC
:104630000121C2790700931152110B400A40120167
:104640005B0113435A4612782F318A4313435A466B
:104650001370C37882781B021343C318093703937E
:10466000039BBB4200D8ACE001227B7800920B2B6D
:1046700003D1FB7800933B78FF187B78042B00D0A4
:104680002AE50026039B584ADB1B9BB20293574B3B
:1046900004931B78B24263D0B846B34256D800D0D8
:1046A0001AE5534B534F41465046029A9847082803
:1046B00003D9029A824200D38AE0049B01361B7818
:1046C000F6B2B342E9D207E55046FFF74FFBB378A5
:1046D000454A0093454B002698461B78002A0DD08A
:1046E000454FB34225D820D1444B504698474346C6
:1046F00001361B78F6B2B342F3D206E0504600F022
:104700006BFB43461B78002B0FD1532200215846E8
:10471000FEF7BEFB5B461022FF21D81CFEF7B8FB5C
:104720002022FF213648FEF7B3FB5B46009A9A70C1
:1047300084E618233A68734394466344002BF4D00C
:104740005B68D2E7FFF7E2F80200F0E62A4B1F6849
:1047500018237343FF18002F00D1BDE4BB68A2E704
:10476000029B39001A005046984600F04BFB08287F
:1047700000D8B1E44246824200D2ADE41D4B9846D7
:10478000009B012B28D000220AE0BB78D318DBB2B3
:104790005B44D978FF2900D09EE40132DE70D2B2AA
:1047A000009B9A42F1D18046330002003900144840
:1047B00000F03CFD049B47441B78B34200D34FE715
:1047C0008AE4104B002B00D13CE600E000BF39E644
:1047D0003B0047469846D3E74246054B92689A42CB
:1047E000D1D1059B0093CEE719350010C11D0020E3
:1047F000054E00109C5B00104C120020D94D00109B
:104800008715002000000000F8B557464E46DE46EA
:1048100045460C00E0B516001F00002A3CD070236E
:1048200098461E4B00259B461D4B9A461AE05B4658
:104830001B78200099465346997800F0BBFC00286D
:104840001CD021004846FFF70DFA002816D0A378A7
:10485000DA09012A19D00A9A013513702378E4186D
:10486000B54219DA6378052B08D1E3789B079B0FD3
:10487000BB4203D14246A3781A42D8D00020F0BCF4
:10488000BB46B246A946A046F8BD0B9A0135137047
:104890002378E418B542E5DB0120F0E7040F00209F
:1048A00074150020802310B51B0184B001930E4BBA
:1048B00002901C6803916269EFF3108372B611686D
:1048C0000029FCD0BFF35F8FA361200001A900F095
:1048D000F9FD6269A369BFF35F8F0021116083F363
:1048E000108804B010BDC046CC150020702270B5F1
:1048F0008B780C001A4201D0002070BD064B2000BE
:104900001D78064B997800F055FC0028F4D0210062
:104910002800FFF7A7F9F0E7040F00207415002026
:10492000074B080019687F2310B50340C0095B00DE
:1049300033301818034B181800F0F8FB10BDC046B0
:10494000C815002074150020074B080019687F2344
:1049500010B50340C0095B0033301818034B18181A
:1049600000F00CFC10BDC046C815002074150020D6
:104970007F2070B508400F4C4000CD092418641901
:104980003034E5780020ED0700D570BD0126E578CC
:10499000094835430078E570FFF7ECF90028F4D1B9
:1049A0000122E3789343E370E37803329343E370A7
:1049B000EBE7C04674150020040F002070B50A4EC6
:1049C0000500300008220C00FEF768FA00237F2162
:1049D000F3602278B36091425B412800D901002244
:1049E0000023FFF7C5FF70BD18150020F8B5CE46AF
:1049F000474691462A4E80B50822070030000D0038
:104A00009846FEF74BFA4B46B3600023F381EC79EE
:104A1000A97924020C43231C444500D943469AB289
:104A20009046B381002C13D0002A1FD04B46002B98
:104A300034D0131C402A1FD89BB2984633787F2B62
:104A400020D80021174A43463800FFF791FF09E0BC
:104A50007F222B7838009A42644100230022E10132
:104A6000FFF786FFC0BCB946B046F8BD33787F2B50
:104A700011D980210022E6E740239BB29846337883
:104A80007F2BDED9074C424649462000FEF706FA46
:104A900080212200D7E700210022D4E70020E1E7AF
:104AA000181500203415002010B5142200210248EA
:104AB000FEF7EEF910BDC04618150020014B186135
:104AC0007047C0461815002010B5054C010008229B
:104AD0002000FEF7E3F90023A360E36010BDC046A9
:104AE00018150020F8B53B4C1D0023780600DA09A4
:104AF000C9098A4213D00020002D00D0F8BD364BE2
:104B0000002B03D021003000FFF79EF82369002B13
:104B100044D022000321300098470120EEE77F2B8C
:104B200006D8A068002837D02A002C49FEF7B6F92D
:104B3000A368E28959195219E38892B2E281A1600F
:104B4000934214D03F2D12D9A589A81A071C80B210
:104B500040282FD82378BFB27F2B2DD80021AA421E
:104B600035D01E4A3B003000FFF702FFC6E723693D
:104B7000002B05D0220002213000984700280FD0DA
:104B80007F220021237830009A42494100230022ED
:104B9000C901FFF7EDFEB1E70020AFE70120ADE767
:104BA00000213000FFF7F8F830008021FFF7F4F81B
:104BB0000120A3E74027CDE7AA4207D0074C3A00DF
:104BC0002000FEF76BF980212200CBE78021002234
:104BD000C8E7C04618150020493C001034150020D5
:104BE00010B50400FFF75AF9002801D1002010BDCC
:104BF000FFF75CF90028F9D1B22080004443034854
:104C00000019037901201840F1E7C0465012002036
:104C1000B2239B00584310B5024B1030C01800F06F
:104C200057FB10BD50120020F0B5B225AD00454332
:104C30002C00C646174F1034E41900B5200092B27C
:104C400000F0CAFB0600200000F060FB3F2803D8FC
:104C5000300080BCB846F0BD7B190020D97898465A
:104C6000FFF75EFE0028F3D0200000F04FFB3F2846
:104C70000AD992239B00EA184346D219D97800201A
:104C80004023FFF775FEE3E743460020D978FFF79E
:104C90005BFEDDE750120020F8B50400FFF7FEF8D8
:104CA000002801D10020F8BDFFF700F90028F9D154
:104CB000B220800044432500144E2435AD1928004D
:104CC00000F006FB0028EDD037190020B978FFF777
:104CD00027FE0028E6D0A2239B009C466444A4192A
:104CE00021002800402200F077FBB978051E08D08B
:104CF000030022000020FFF73BFE0028D2D028004E
:104D0000D1E70020FFF720FECCE7C046501200207C
:104D100070B5B224A4004443094B2434E4180500C0
:104D200092B2200000F012FC0600200000F0D0FA41
:104D30003F2801D8300070BD2800FFF7ADFFF9E72C
:104D400050120020B2239B00584310B5024B243070
:104D5000C01800F0DBFA10BD50120020B222F0B5EE
:104D60001B4C83B0002120009200FEF791F8FF2336
:104D70006371184B80260025E3800127082321005A
:104D80002000760023733200278138310095073BDD
:104D9000103000F065FA2100200039313200FF3177
:104DA00001230097243000F05BFA8E239B00E61865
:104DB0003000FCF7E7FC90239B002662E6183000E9
:104DC000E561FCF7DFFC2663656303B0F0BDC04618
:104DD0005012002000C2FFFF10B5094C052200212F
:104DE0002000FEF755F820002434103000F062FC5B
:104DF000200000F05FFC0121200000F07BFC10BDD2
:104E000050120020F0B54B79060083B0022B02D17E
:104E10008B79022B03D00025280003B0F0BD304F62
:104E2000BB78002BF7D18B7809253B700C780C19D7
:104E30006378242B0BD1082A02D80FE0AA420DD3A5
:104E40002378E418ED186378ADB2242BF6D0052B47
:104E500021D0042B02D163790A2B2FD0214C2000C2
:104E600000F054FA3F28D7D92600103E0020F178F0
:104E7000FFF756FD0028CFD0200000F047FA3F286A
:104E800017D98E239B00E218F93BF178FF3B0020F5
:104E9000FFF76EFDC0E721003000FFF727FD002877
:104EA000B9D0A3787B702378ED18E4186378ADB29D
:104EB000CFE7F1780020FFF747FDADE70A4B2778F1
:104EC000019301330093022202233000E119FFF71E
:104ED0009BFC00289FD00E35ED19ADB2BEE7C04651
:104EE000501200206012002052120020F8B56023FA
:104EF00014001278050013400020202B12D12F4AF5
:104F00006379277916781B023B439E420AD1637866
:104F1000222B27D007D8202B17D0212B02D10129F3
:104F20003DD00120F8BD232BFCD101293FD003291E
:104F3000F7D1234B002BF4D0E178A37809020020AD
:104F4000194300E000BF0120ECE7012927D0032925
:104F5000E7D11C4B002BE4D00020911DFEF7E2FAB4
:104F60000120DFE7012922D00329DAD101252E0013
:104F7000A378E478023924021C43147126402432B9
:104F80001000714000F0B6FB0F4B002BC9D0620837
:104F9000002031002A4000E000BF0120C2E70723C3
:104FA00021002800094AFFF721FD0120BAE721006E
:104FB0002800FFF703FD0120B4E7C046501200208F
:104FC00000000000253500100000000056120020EF
:104FD000F8B557464E464546DE46E0B5494F804651
:104FE000FA780C001E008A4264D19AB292239B0088
:104FF000FD1810239B46BB442900584600F0A6FA32
:10500000414BD946002B18D07B79D946FF2B14D0C1
:10501000002E12D0AA19924603E0013555450CD056
:105020007B792A789A42F8D1484600F067F900283F
:10503000F3D1797900E000BFEFE7344B002B04D0C7
:10504000484600F05BF9002852D0484600F05EF96F
:105050003F2834D84A46103A9378A34207D0012417
:105060002000F0BCBB46B246A946A046F8BD284B7E
:10507000002B02D0002000E000BF0020FFF70CFE54
:105080000028ECD1234D280000F022F90028E6D1B9
:10509000002EE4D0B306E2D1243D4046A978FFF7C4
:1050A0003FFC041EDBD0002300224046A978FFF716
:1050B0005FFCD5E7BB788B42D9D00024D0E74D46C2
:1050C000103D0020E978FFF72BFC002801D1AB78D8
:1050D000C3E7484600F01AF93F280CD98E22920007
:1050E00040230020E9784A44FFF742FCAB78B4E75C
:1050F000FEF78AFBA9E70020E978FFF725FCAB78EB
:10510000ABE7C04650120020000000000938001034
:10511000000000007412002010B50020FEF7D8FE39
:1051200010BDC04610B5FEF7C9FE10BD037870B5BE
:10513000DB0704000E00DD0F002B17D103785B079F
:1051400001D5280070BD01213000494200F058FB14
:105150002378DB07DD0F002B0AD123785B0708D407
:105160000422237801251343237002E00025E8E799
:105170000025300000F01CFBE3E7C04670B50D00D1
:10518000012104004942280000F03AFB23785B0724
:10519000DE0F002B04DB280000F00AFB300070BD9E
:1051A0002378DB0704D40422237893432370F2E7A7
:1051B0000026F0E710B5437904791B0223435B0511
:1051C0005A0DC3789B079B0F022B05D0032B15D0DC
:1051D0000020012B08D010BD02291CD00020402344
:1051E00093424041C0B2F6E702394B4259410D4B60
:1051F0009C46614491424041C0B2ECE702394B42C7
:105200005941F023002049429B001940403191420E
:105210004041C0B2DFE7044BD3185A425341D8B2E1
:10522000D9E7C046FF03000000FEFFFF8A1870B5F3
:10523000914207D27F264C78052C04D00C780919AE
:105240008A42F8D870BD34008D782C40640004196F
:10525000ED0963550C7809198A42ECD8F2E7C0468B
:10526000F0B5C64600B5040006A80578802088463B
:1052700017001E000002824227D8E068002803D0F1
:105280000121494200F0BCFA2069002803D0012125
:10529000494200F0B5FA4346236073045B0CED030A
:1052A0001D430023E0686381A780E58023810028F7
:1052B00001D000F07DFA20690124002801D000F01F
:1052C00077FA200080BCB846F0BD0024F9E7C0465C
:1052D00010B5048941898288A3B288B28C4207D371
:1052E0001B1A9BB2101C9A4200D9181C80B210BD28
:1052F0005100091A5B189BB2F4E7C046030000890D
:105300005B89C01A43425841C0B2704710B5048946
:1053100041898288A3B288B28C4207D31B1A9BB200
:1053200000209A4201D9D31A98B210BD5100091A2F
:105330005B189BB2F4E7C04670B5040000690E002C
:10534000002803D00121494200F05AFA25896089DA
:10535000A288A9B283B285422CD3CD1AADB2002D5A
:105360002ED0AA4208D2914231D38B1A9BB26381CC
:105370009A4203D89B1A9BB29A42FBD9E2882168D1
:105380005204520C53433000C918FDF787FD618960
:1053900001254B1C9BB2A288994214D900235200CC
:1053A0009B1A9BB220696381002801D000F000FAAB
:1053B000280070BD5500ED1A4D19ADB2002DD0D1A9
:1053C000002563899BB252009342EBDBE8E7891822
:1053D0008BB26381CCE7C046F0B546464F46D64611
:1053E000C0B50600006989469046002803D0012117
:1053F000494200F005FA31897289B5888BB294B2BE
:10540000914257D31F1BBFB2002F4DD0BD4205D2D2
:10541000AB4254D25B199CB22F0074814346B8450D
:1054200040D89FB2A54203D8641BA4B2A542FBD9C1
:10543000F288281B5204530C1900984633686143C4
:105440009C4680B26144874226D94346584383B282
:105450001A0048469A46FDF721FD434648467D1B03
:1054600064195C4331685044A2B2FDF717FD71899D
:10547000B588CB199BB26A00994217D99B1A9BB287
:1054800030697381002801D000F092F93800E0BC47
:10549000BA46B146A846F0BD424648467A43FDF7B3
:1054A000FDFCE4E73B1CBCE773899BB26A009342B6
:1054B000E6DBE3E76F003F1BDF19BFB2A4E75B1B2E
:1054C0009CB2A9E7F8B50400C0680E00002803D01C
:1054D0000121494200F094F9258920896189A28837
:1054E000ADB283B28FB2884228D3DB1B9BB29A4203
:1054F00009D8E779FF0906D1E068002801D000F05B
:1055000057F93800F8BD2B00954203D39B1A9BB284
:105510009342FBD2E28821685204520C5343C818CC
:105520003100FDF7BBFCA2886B1C9BB252009D4270
:1055300009D99B1A9BB201272381DDE75100C91BC2
:105540005B189BB2D3E79342F5DBF2E7F0B54E462A
:105550004546DE465746E0B589460500140083B04F
:10556000002A6ED0C068002803D00121494200F013
:1055700047F92F89EA796B89BFB29BB2D20942D130
:10558000AE889F4267D27200D31AFB189BB20022EA
:1055900090469E4231D9F31A1A1C9BB2A34200D9FD
:1055A000221C93B29846E8884346FB189BB29B4660
:1055B0003C00B74203D3A41BA4B2B442FBD24004C4
:1055C000430C18009A462B6860439C46311B89B2F5
:1055D000604441454ED35246434649465A43FDF73F
:1055E0005DFCAB885B00BB4501D39B4503DB5A46A2
:1055F000D31A9BB29B465B462B81E868002822D0D9
:1056000000F0D6F81FE0AA889046944226D29F4226
:1056100044D34146FA1A92B2490012198A4209DB70
:1056200042469A1892B2171BBFB29346BB423AD970
:105630007F1ABFB2E3199BB246469B46A046E88854
:10564000B6E700239846404603B0F0BCBB46B246DE
:10565000A946A046F0BDFB1A9BB298E7E888A21ABB
:105660004404640C54434246A144002AC5D0464633
:105670001F0099E75346594389B20A0001914946F0
:10568000FDF70CFC43469A1B5346A2185A43019956
:10569000286892B24944FDF701FCA2E75100CA1AFA
:1056A000BA1892B2B9E7B942C2DD4646E888A046C8
:1056B0007EE7C04610B50400C068002803D0012171
:1056C000494200F09DF82069002803D00121494299
:1056D00000F096F80023E06863812381002801D060
:1056E00000F066F82069002801D000F061F8012080
:1056F00010BDC04670B50400C0680D00002803D07E
:105700000121494200F07CF82069002803D00121E2
:10571000494200F075F87F21E379ED011940E06816
:105720002943E171002801D000F042F820690028E7
:1057300001D000F03DF8012070BDC04610B58307D0
:105740000AD00300032102E001330B4205D01A788E
:10575000002AF9D1181A10BD030019680C4A0D4C23
:105760008A188A4322420FD15968094A04338A1899
:105770008A43224208D15968054A04338A188A4369
:105780002242F1D000E001331A78002AFBD1E1E790
:10579000FFFEFEFE80808080F8B5C046000000005D
:1057A00001B40248844601BC604700BFD10200201A
:1057B00001B40248844601BC604700BF31020020AA
:1057C00001B40248844601BC604700BFF9090020CB
:1057D00001B40248844601BC604700BFA10D00200F
:1057E00001B40248844601BC604700BFD1090020D3
:1057F00001B40248844601BC604700BFC1000020DC
:1058000001B40248844601BC604700BFA1010020EA
:1058100001B40248844601BC604700BF95030020E4
:1058200001B40248844601BC604700BF0501002066
:1058300001B40248844601BC604700BF750B0020DC
:1058400001B40248844601BC604700BF110B002030
:1058500001B40248844601BC604700BF1D0B002014
:1058600057656C636F6D6520746F20746865205098
:10587000524553454E5420626974736C6963696E76
:10588000672070726F6772616D2076302E312E2E18
:105890002E0000000C05060B09000A0D030E0F0870
:1058A000040701024E6F207370696E6C6F636B7337
:1058B0002061726520617661696C61626C650000CF
:1058C0004E6F207573657220495251732061726565
:1058D00020617661696C61626C6500004861726488
:1058E0007761726520616C61726D20256420616C46
:1058F000726561647920636C61696D6564000000A4
:105900000A2A2A2A2050414E4943202A2A2A0A00DC
:105910000A0000004861726420617373657274004C
:1059200052656C6561736500626F6F74325F7732C8
:105930003571303830000000312E352E3000000037
:105940007069636F000000007069636F5F7072655B
:1059500073656E745F62730041707220313520325E
:105960003032330006005250BBFF3CB640590010A5
:1059700006005250E182887F2859001006005250DC
:10598000D3F07542205900100D0A000055415254C1
:1059900020737464696E000055415254207374641E
:1059A0006F7574005541525420737464696E202FD2
:1059B000207374646F7574000600525053B4F4A1E0
:1059C000A4590010080052509200000079340010D1
:1059D0007D34001089340010B5340010B13400104B
:1059E0000000000055534220737464696E202F201C
:1059F0007374646F757400000600525053B4F4A1C0
:105A0000E4590010526173706265727279205069B6
:105A1000000000005069636F00000000426F617277
:105A20006420434443000000526573657400000025
:105A300009025400030100807D080B0002020200ED
:105A400000090400000102020004052400200105F1
:105A50002401000104240202052406000107058137
:105A60000308001009040100020A000000070502F3
:105A70000240000007058202400000090402000005
:105A8000FF00010512010002EF0201408A2E0A0008
:105A9000000101020301000000000000045A001090
:105AA000145A0010B01D00201C5A0010285A001073
:105AB000556E68616E646C6564204952512030787F
:105AC00025780A006570202564202573207761738E
:105AD00020616C726561647920617661696C6162D4
